:0A0B7B000001020203030404050553
:1002B700E4F513F512F511F510C203C200C202C22C
:1002C7000112041E7E077F008E238F24752B07756E
:1002D7002C1275210775221C752907752A58752D4B
:1002E70007752E94EE54C070030203B87514007599
:1002F70015808E168F17C374B69FFF74079ECF2481
:1003070002CF3400FEE48F0F8E0EF50DF50CF50BC2
:10031700F50AF509F508AF0FAE0EAD0DAC0CAB0B3A
:10032700AA0AA909A808C31206C35033E517250B63
:10033700F582E516350AF583E0FFE515250BF5820D
:10034700E514350AF583EFF0E50B2401F50BE435E9
:100357000AF50AE43509F509E43508F50880B78593
:10036700142385152474002480FF740734FFFEC30B
:10037700E52C9FF52CE52B9EF52BC3E5269FF5264F
:10038700E5259EF525C3E5289FF528E5279EF52752
:10039700C3E5229FF522E5219EF521C3E52A9FF5B6
:1003A7002AE5299EF529C3E52E9FF52EE52D9EF515
:1003B7002DD2E843D82090E668E04409F090E65C47
:1003C700E0443DF0D2AF90E680E020E105D2041290
:1003D7000A2D90E680E054F7F0538EF8C203120816
:1003E700B8300105120080C2013003F21207FE5037
:1003F700EDC203120A8720001690E682E030E70478
:10040700E020E1EF90E682E030E604E020E0E4124D
:0704170006D4120BA180C7FF
:0B0B700090E50DE030E402C322D32228
:1000800090E6B9E0700302013F1470030201BC2442
:10009000FE700302023F24FB700302013914700357
:1000A00002013314700302012714700302012D248E
:1000B0000560030202A3120BA340030202AF90E605
:1000C000BBE024FE602714603824FD601114602713
:1000D00024067050E52390E6B3F0E524803C120B33
:1000E00070503EE52B90E6B3F0E52C802DE5259091
:1000F000E6B3F0E5268023E52790E6B3F0E5288017
:100100001990E6BAE0FF120A5CAA06A9077B01EA89
:10011000494B600DEE90E6B3F0EF90E6B4F00202CA
:10012000AF02029E02029E120B520202AF120B8D10
:100130000202AF120B850202AF120B400202AF1295
:100140000BA540030202AF90E6B8E0247F601514CF
:10015000601924027063A200E43325E0FFA202E4E8
:10016000334F8041E490E740F0803F90E6BCE0549C
:100170007EFF7E00E0D394807C0040047D018002FD
:100180007D00EC4EFEED4F247BF582740B3EF58333
:10019000E493FF3395E0FEEF24A1FFEE34E68F8277
:1001A000F583E0540190E740F0E4A3F090E68AF094
:1001B00090E68B7402F00202AF02029E120BA7407F
:1001C000030202AF90E6B8E024FE6016240260034A
:1001D0000202AF90E6BAE0B40105C2000202AF022B
:1001E000029E90E6BAE0705590E6BCE0547EFF7E39
:1001F00000E0D394807C0040047D0180027D00EC0F
:100200004EFEED4F247BF582740B3EF583E493FFA5
:100210003395E0FEEF24A1FFEE34E68F82F583E014
:1002200054FEF090E6BCE05480131313541FFFE01B
:10023000540F2F90E683F0E04420F08072805F122C
:100240000BA9506B90E6B8E024FE60192402704EB2
:1002500090E6BAE0B40104D200805490E6BAE064BB
:1002600002604C803990E6BCE0547EFF7E00E0D313
:1002700094807C0040047D0180027D00EC4EFEED08
:100280004F247BF582740B3EF583E493FF3395E0B6
:10029000FEEF24A1FFEE34E68F82F583800D90E619
:1002A000A08008120BAB500790E6A0E04401F0904C
:0602B000E6A0E04480F02E
:0102B6002225
:03003300020B9D20
:040B9D0053D8EF3208
:10041E00E4FE75B4F0F5A090E600E054E74410F069
:10042E0000000090E60174E3F000000090E60B740B
:10043E0003F0000000E490E613F090E614F090E66E
:10044E0015F090E6047480F00000007402F00000D5
:10045E00007404F00000007406F00000007408F050
:10046E00000000E4F000000090E618740DF00000AB
:10047E000090E61274E0F000000090E61174A0F017
:10048E0000000090E610F000000090E6207402F0EC
:10049E00000000E490E621F000000090E6097438B8
:1004AE00F0000000E4FF74002FF58274F03EF58337
:1004BE00E4F00000000FBF00010EE4B507E8EEB453
:1004CE0002E4E4FEFF74002FF58274F03EF583E43F
:1004DE00F00000000FBF00010EE4B507E8EEB40215
:1004EE00E4E4FEFF74002FF58274F03EF583E4F031
:1004FE000000000FBF00010EE4B507E8EEB402E401
:10050E00E4FEFF74002FF58274F03EF583E4F000F4
:10051E0000000FBF00010EE4B507E8EEB402E4E4FC
:10052E00FEFF74C02FF582E434E7F583EFF00FBFC2
:10053E0000010EEF64404E70E990E68F7440F000BB
:10054E000000E490E68DF000000090E6907402F05A
:0E055E00000000E490E691F0000000020B9512
:1008B800E4FFFE90E6A2E020E129EF25E025E0FD37
:1008C80074C02FF582E434E7F583EDF00000000FE3
:1008D800BF00010EEF64404E70E090E68F7440F068
:1008E80000000090E6A1E020E1167AE77B807D0118
:1008F800E4FF120AC8000000E490E68DF000000052
:0109080022CC
:0207FE00D32204
:020BA100D3225D
:020BA300D3225B
:080B850090E6BAE0F532D3223C
:100B400090E740E532F0E490E68AF090E68B04F01E
:020B5000D322AE
:080B8D0090E6BAE0F52FD32237
:100B520090E740E52FF0E490E68AF090E68B04F00F
:020B6200D3229C
:020BA500D32259
:020BA700D32257
:020BA900D32255
:020BAB00D32253
:100AE400C0E0C083C082D2015391EF90E65D7401EF
:080AF400F0D082D083D0E03283
:100B1400C0E0C083C0825391EF90E65D7404F0D0CE
:060B240082D083D0E03214
:100B2A00C0E0C083C0825391EF90E65D7402F0D0BA
:060B3A0082D083D0E032FE
:10090900C0E0C083C08290E680E030E714852125ED
:10091900852226852927852A287530027531008088
:1009290012852925852A26852127852228753000C3
:100939007531405391EF90E65D7410F0D082D08309
:03094900D0E032C9
:100AFC00C0E0C083C082D2035391EF90E65D7408CE
:080B0C00F0D082D083D0E0326A
:10094C00C0E0C083C08290E680E030E714852125AA
:10095C00852226852927852A287530027531008045
:10096C0012852925852A2685212785222875300080
:10097C007531405391EF90E65D7420F0D082D083B6
:03098C00D0E03286
:010BAD003215
:010BAE003214
:010BAF003213
:010BB0003212
:010BB1003211
:010BB2003210
:010BB300320F
:010BB400320E
:010BB500320D
:010BB600320C
:010BB700320B
:010BB800320A
:010BB9003209
:010BBA003208
:010BBB003207
:010BBC003206
:010BBD003205
:010BBE003204
:010BBF003203
:010BC0003202
:010BC1003201
:010BC2003200
:010BC30032FF
:010BC40032FE
:010BC50032FD
:010BC60032FC
:010BC70032FB
:010BC80032FA
:010BC90032F9
:010BCA0032F8
:010BCB0032F7
:010BCC0032F6
:010BCD0032F5
:010BCE0032F4
:010BCF0032F3
:010BD00032F2
:100700001201000200000040B404041000000102C5
:1007100000010A06000200000040010009023C003E
:1007200001010080320904000006FF0000000705F7
:100730000102000200070581020002000705820293
:1007400000020007050402000200070586020002FD
:10075000000705880200020009023C000101008038
:10076000320904000006FF000000070501024000F6
:1007700000070581024000000705820240000007D3
:1007800005040240000007058602400000070588B6
:1007900002400000040309041003430079007000C4
:1007A00072006500730073000E0345005A002D00AF
:0807B000550053004200000057
:1006D40090E682E030E004E020E60B90E682E03031
:1006E400E119E030E71590E680E04401F07F147EE4
:0C06F400001207B890E680E054FEF022EF
:100A2D0030040990E680E0440AF0800790E680E00B
:100A3D004408F07FDC7E051207B890E65D74FFF088
:0F0A4D0090E65FF05391EF90E680E054F7F022CF
:080B9500E4F51FD2E9D2AF2202
:10098F00AD0790E678E020E6F9C2E990E678E0441A
:10099F0080F0ED25E090E679F090E678E030E0F930
:1009AF0090E678E04440F090E678E020E6F990E6B3
:0809BF0078E030E1D6D2E92214
:1009FB00AC0790E678E020E6F9E51F702390E678E7
:100A0B00E04480F0EC25E090E679F08D1AAF03A975
:100A1B0007751B018A1C891DE4F51E751F01D32266
:020A2B00C322E4
:1009C700AC0790E678E020E6F9E51F702590E67819
:1009D700E04480F0EC25E0440190E679F08D1AAF11
:1009E70003A907751B018A1C891DE4F51E751F03E2
:0409F700D322C32222
:03004B0002056C3F
:10056C00C0E0C083C082C085C084C086758600C0D0
:10057C00D075D000C000C001C002C003C006C007C7
:10058C0090E678E030E206751F0602065690E67893
:10059C00E020E10CE51F64026006751F0702065699
:1005AC00E51F24FE605F14603624FE7003020647CC
:1005BC0024FC700302065324086003020656AB1B8E
:1005CC00AA1CA91DAF1E051E8F827583001206740E
:1005DC0090E679F0E51E651A7070751F05806B90BA
:1005EC00E679E0AB1BAA1CA91DAE1E8E827583009A
:1005FC001206A1751F02E51A6401704E90E678E0B0
:10060C004420F08045E51A24FEB51E0790E678E0FC
:10061C004420F0E51A14B51E0A90E678E04440F048
:10062C00751F0090E679E0AB1BAA1CA91DAE1E8EAF
:10063C00827583001206A1051E800F90E678E044B7
:10064C0040F0751F008003751F005391DFD007D059
:10065C0006D003D002D001D000D0D0D086D084D028
:08066C0085D082D083D0E0327A
:020A5C00A907E8
:100A5E00AE2DAF2E8F828E83A3E064037017AD018F
:100A6E0019ED7001228F828E83E07C002FFDEC3E0B
:080A7E00FEAF0580DFE4FEFF7E
:010A8600224D
:100AAC001209C7E51F24FA600E146006240770F3C0
:0C0ABC00D322E4F51FD322E4F51FD3225F
:100AC8001209FBE51F24FA600E146006240770F370
:0C0AD800D322E4F51FD322E4F51FD32243
:100A870090E682E044C0F090E681F04387010000E1
:040A97000000002239
:1007B8008E188F1990E600E054187012E51924017C
:1007C800FFE43518C313F518EF13F519801590E6F3
:1007D80000E05418FFBF100BE51925E0F519E518DE
:1007E80033F518E5191519AE18700215184E60057D
:0607F800120A9B80EE22B4
:100A9B007400F58690FDA57C05A3E582458370F96E
:010AAB002228
:03004300020800B0
:03005300020800A0
:10080000020AE400020B2A00020B1400020AFC0098
:100810000209090002094C00020BAD00020BAE00F8
:10082000020BAF00020BB000020BB100020BB200D2
:10083000020BB300020BB400020BB500020BB600B2
:10084000020BB700020BAE00020BB800020BB9009E
:10085000020BBA00020BBB00020BBC00020BBD0076
:10086000020BBE00020BAE00020BAE00020BAE008C
:10087000020BBF00020BC000020BC100020BC20042
:10088000020BC300020BC400020BC500020BC60022
:10089000020BC700020BC800020BC900020BCA0002
:1008A000020BCB00020BCC00020BCD00020BCE00E2
:0808B000020BCF00020BD00087
:03000000020B648C
:0C0B6400787FE4F6D8FD7581320202B7FC
:10067400BB010CE58229F582E5833AF583E022503B
:1006840006E92582F8E622BBFE06E92582F8E22285
:0D069400E58229F582E5833AF583E493229F
:1006A100F8BB010DE58229F582E5833AF583E8F08F
:1006B100225006E92582C8F622BBFE05E92582C83B
:0206C100F22223
:1006C300EB9FF5F0EA9E42F0E99D42F0E89C45F08D
:0106D3002204
:00000001FF
